:100000000C94E2020C940A030C940A030C940A0365
:100010000C940A030C940A030C940A030C940A032C
:100020000C940A030C940A030C940A030C940A031C
:100030000C940A030C940A030C940A030C940A030C
:100040000C94C40B0C940A030C942F0A0C94090A08
:100050000C940A030C940A030C940A030C940A03EC
:100060000C943F0C0C940A030000000800020100ED
:100070000003040700000000000000000000000072
:10008000003E5B4F5B3E3E6B4F6B3E1C3E7C3E1C1E
:10009000183C7E3C181C577D571C1C5E7F5E1C0064
:1000A000183C1800FFE7C3E7FF0018241800FFE71B
:1000B000DBE7FF30483A060E2629792926407F05DE
:1000C0000507407F05253F5A3CE73C5A7F3E1C1CF4
:1000D00008081C1C3E7F14227F22145F5F005F5FB4
:1000E00006097F017F006689956A606060606094A0
:1000F000A2FFA29408047E040810207E20100808A5
:100100002A1C08081C2A08081E101010100C1E0CAF
:100110001E0C30383E3830060E3E0E060000000041
:100120000000005F00000007000700147F147F1428
:10013000242A7F2A1223130864623649562050006D
:1001400008070300001C2241000041221C002A1C59
:100150007F1C2A08083E0808008070300008080844
:100160000808000060600020100804023E51494564
:100170003E00427F400072494949462141494D3382
:100180001814127F1027454545393C4A49493141E9
:10019000211109073649494936464949291E0000B7
:1001A000140000004034000000081422411414140C
:1001B0001414004122140802015909063E415D59F8
:1001C0004E7C1211127C7F494949363E4141412201
:1001D0007F4141413E7F494949417F090909013E2B
:1001E000414151737F0808087F00417F4100204052
:1001F000413F017F081422417F404040407F021C64
:10020000027F7F0408107F3E4141413E7F0909097A
:10021000063E4151215E7F09192946264949493246
:1002200003017F01033F4040403F1F2040201F3F0C
:100230004038403F63140814630304780403615991
:10024000494D43007F4141410204081020004141D3
:10025000417F04020102044040404040000307087F
:100260000020545478407F2844443838444444287B
:10027000384444287F385454541800087E09021822
:10028000A4A49C787F0804047800447D40002040AA
:10029000403D007F1028440000417F40007C0478EE
:1002A00004787C080404783844444438FC18242436
:1002B0001818242418FC7C080404084854545424B6
:1002C00004043F44243C4040207C1C2040201C3C33
:1002D0004030403C44281028444C9090907C44642A
:1002E000544C4400083641000000770000004136BD
:1002F000080002010204023C2623263C1EA1A16143
:10030000123A4040207A3854545559215555794174
:100310002254547842215554784020545579400C49
:100320001E5272123955555559395454545939552C
:100330005454580000457C410002457D420001456F
:100340007C407D1211127DF0282528F07C54554503
:10035000002054547C547C0A097F4932494949326F
:100360003A4444443A324A4848303A4141217A3A80
:1003700042402078009DA0A07D3D4242423D3D404C
:1003800040403D3C24FF2424487E4943662B2FFCFB
:100390002F2BFF0929F620C0887E090320545479A9
:1003A000410000447D413048484A32384040227A7A
:1003B000007A0A0A727D0D19317D2629292F2826F7
:1003C0002929292630484D402038080808080808FF
:1003D0000808382F10C8ACBA2F102834FA00007B58
:1003E000000008142A142222142A1408550055006B
:1003F00055AA55AA55AAFF55FF55FF000000FF005A
:10040000101010FF00141414FF001010FF00FF1054
:1004100010F010F0141414FC001414F700FF000086
:10042000FF00FF1414F404FC141417101F10101F05
:10043000101F1414141F00101010F0000000001FF3
:10044000101010101F10101010F010000000FF10FE
:100450001010101010101010FF10000000FF1400FA
:1004600000FF00FF00001F10170000FC04F414142C
:100470001710171414F404F40000FF00F7141414F8
:1004800014141414F700F7141414171410101F1078
:100490001F141414F4141010F010F000001F101F9B
:1004A0000000001F14000000FC140000F010F01009
:1004B00010FF10FF141414FF141010101F00000080
:1004C00000F010FFFFFFFFFFF0F0F0F0F0FFFFFF84
:1004D0000000000000FFFF0F0F0F0F0F38444438DB
:1004E00044FC4A4A4A347E02020606027E027E022A
:1004F00063554941633844443C04407E201E200635
:10050000027E020299A5E7A5991C2A492A1C4C7271
:1005100001724C304A4D4D303048784830BC625AF8
:10052000463D3E494949007E0101017E2A2A2A2A88
:100530002A44445F444440514A444040444A514064
:100540000000FF0103E080FF000008086B6B083625
:1005500012362436060F090F060000181800000096
:100560001010003040FF0101001F01011E00191D85
:100570001712003C3C3C3C00000000000000000062
:1005800023002600290001020408102040800102F7
:1005900004081020010204081020000000002500BB
:1005A00028002B00040404040404040402020202D0
:1005B00002020303030303030000000024002700DA
:1005C0002A00871111241FBECFEFD8E0DEBFCDBFB8
:1005D00013E0A0E0B1E0E6EFF4E302C005900D9275
:1005E000A239B107D9F725E0A2E9B3E001C01D9215
:1005F000AD30B207E1F712E0C2EED2E004C02197BD
:10060000FE010E945219C13ED107C9F70E945E1235
:100610000C94791A0C940000CF92DF92EF92FF9223
:100620000F931F93CF93DF936C017A018B01C0E08E
:10063000D0E0CE15DF0581F0D8016D918D01D60196
:10064000ED91FC910190F081E02DC6010995892B77
:1006500011F02196EECF7E01C701DF91CF911F915E
:100660000F91FF90EF90DF90CF900895FC01538D94
:10067000448D252F30E0842F90E0821B930B54177C
:1006800010F0CF96089501970895FC01918D828D09
:10069000981761F0828DDF01A80FB11D5D968C91D6
:1006A000928D9F5F9F73928F90E008958FEF9FEFE1
:1006B0000895FC01918D828D981731F0828DE80F9D
:1006C000F11D858D90E008958FEF9FEF0895FC0157
:1006D000918D228D892F90E0805C9F4F821B910924
:1006E0008F73992708958CE094E00E94670321E0BE
:1006F000892B09F420E0822F0895FC01848DDF010D
:10070000A80FB11DA35ABF4F2C91848D90E0019684
:100710008F739927848FA689B7892C93A089B18973
:100720008C91837080648C93938D848D981306C014
:100730000288F389E02D80818F7D80830895EF9278
:10074000FF920F931F93CF93DF93EC0181E0888F8B
:100750009B8D8C8D981305C0E889F989808185FD72
:1007600026C0F62E0B8D10E00F5F1F4F0F73112761
:10077000E02E8C8DE8120CC00FB607FCFACFE8898A
:10078000F989808185FFF5CFCE010E947D03F1CFED
:100790008B8DFE01E80FF11DE35AFF4FF0829FB7EA
:1007A000F8940B8FEA89FB89808180620AC09FB729
:1007B000F894EE89FF896083E889F98980818370E4
:1007C000806480839FBF81E090E0DF91CF911F9193
:1007D0000F91FF90EF900895CF93DF93EC01888DF8
:1007E0008823C9F0EA89FB89808185FD05C0A88935
:1007F000B9898C9186FD0FC00FB607FCF5CF8081BB
:1008000085FFF2CFA889B9898C9185FFEDCFCE0104
:100810000E947D03E7CFDF91CF91089580E090E0C3
:10082000892B29F00E94730381110C940000089514
:10083000833081F028F4813099F08230A1F008955E
:100840008730A9F08830B9F08430D1F480918000ED
:100850008F7D03C0809180008F7780938000089502
:1008600084B58F7702C084B58F7D84BD0895809153
:10087000B0008F7703C08091B0008F7D8093B0006F
:1008800008953FB7F8948091080490910904A091CD
:100890000A04B0910B0426B5A89B05C02F3F19F0A0
:1008A0000196A11DB11D3FBFBA2FA92F982F8827F0
:1008B000820F911DA11DB11DBC01CD0142E0660F4B
:1008C000771F881F991F4A95D1F70895FC01CA0127
:1008D000D90177FD91C020853185621773070CF02F
:1008E0008BC057FD89C022853385421753070CF012
:1008F00083C02689223059F02330B1F02130D1F461
:100900002FE230E0261B370BBA01C90113C023E5E3
:1009100030E0A901461B570BBA012FE230E0A901D4
:10092000481B590BCA0106C043E550E0481B590B50
:10093000CB01BA01382F562F43A1641708F4462F74
:1009400043A344A1451708F4452F44A345A13417F8
:1009500008F4432F45A346A1431708F4432F46A3A9
:100960009C01AB2B21F197FF02C0295F3F4F53E061
:10097000359527955A95E1F744E5429FF001439F4D
:10098000F00D11246E0F7F1FFB01E050FF4F68E058
:1009900070E00E94081921E030E0A90102C0440F74
:1009A000551F8A95E2F7CA019081892B24C097FFD1
:1009B00002C0295F3F4F43E0359527954A95E1F7FF
:1009C00044E5429FF001439FF00D11246E0F7F1FFD
:1009D000FB01E050FF4F68E070E00E94081921E041
:1009E00030E0A90102C0440F551F8A95E2F7CA0101
:1009F000809590818923808308954091B903262FA3
:100A000030E0240F311D21323105DCF42091DD036B
:100A10002430C9F4FC0180E090E0861758F430914E
:100A2000B9032191DC01A756BC4FA30FB11D2C9334
:100A30000196F3CF8091B903680F6093B90380E00A
:100A4000089581E0089582E0089508958FEF9FEF63
:100A500008958FEF9FEF08958091920390E0919514
:100A6000819591090895CF93DF93CB01EA01642F1B
:100A70000E94FD04CE01DF91CF910895CF93DF93C3
:100A80001F92CDB7DEB7698361E0CE0101960E9467
:100A9000FD0481E090E00F90DF91CF9108950895DB
:100AA000FC016370668B848195812681378161307A
:100AB00039F0633029F09187808733872287089542
:100AC000318720879387828708956F927F928F92D4
:100AD0009F92AF92BF92CF92DF92EF92FF920F93CD
:100AE0001F93CF93DF93EC014B015A016901380149
:100AF000E881F9810284F385E02D0995E881F98187
:100B00000288F389E02D87019601A501B401CE0189
:100B10000995A501460D571D41505109E881F981FC
:100B20000288F389E02D9601B401CE010995E88190
:100B3000F9810088F189E02D9301A501B401CE016E
:100B40000995C80CD91CB60161507109E881F98179
:100B50000088F189E02D9301A501CE010995E88176
:100B6000F9810688F789E02DCE01DF91CF911F91A1
:100B70000F91FF90EF90DF90CF90BF90AF909F903C
:100B80008F907F906F9009948F929F92AF92BF92B7
:100B9000CF92DF92EF92FF920F931F93CF93DF9349
:100BA0004C016B015A01E901DC01ED91FC916217E6
:100BB000730781F40417150724F48B2D5801042FB3
:100BC000182F0A191B0998012F5F3F4F048CF58DD0
:100BD000E02D12C04017510709F52617370724F4F6
:100BE0008D2D6901C62FD82F9E012C193D092F5F2D
:100BF0003F4F068CF78DE02D8701A501B601C4019A
:100C00000995DF91CF911F910F91FF90EF90DF90A9
:100C1000CF90BF90AF909F908F9008950284F385FE
:100C2000E02D0995D401ED91FC910488F589E02D22
:100C30009E01A501B601C4010995D401ED91FC9175
:100C40000688F789E02DC401DF91CF911F910F91A4
:100C5000FF90EF90DF90CF90BF90AF909F908F90DC
:100C60000994EF92FF920F931F93DC011A960D9156
:100C70001C911B9718962D913C911997ED91FC9121
:100C800000A0F1A1E02D7B0140E050E060E070E0C9
:100C900009951F910F91FF90EF9008954F925F92E9
:100CA0006F927F928F929F92AF92BF92CF92DF927C
:100CB000EF92FF920F931F93CF93DF936C012B0161
:100CC0005A0139014801DC01ED91FC910284F38560
:100CD000E02D0995E201640C751CD601ED91FC91A3
:100CE000C615D7055CF40088F189E02D87019401D1
:100CF000A501BE01C60109952196EFCF0688F789A7
:100D0000E02DC601DF91CF911F910F91FF90EF90E1
:100D1000DF90CF90BF90AF909F908F907F906F901B
:100D20005F904F9009948F929F92AF92BF92CF9213
:100D3000DF92EF92FF920F931F93CF93DF93EC011B
:100D40005B014A016901E881F9810284F385E02DA4
:100D5000099595012C0D3D1D21503109E881F9813E
:100D60000488F589E02D78018401A401B501CE0144
:100D70000995E881F9810688F789E02DCE01DF9198
:100D8000CF911F910F91FF90EF90DF90CF90BF9088
:100D9000AF909F908F9009948F929F92AF92BF9245
:100DA000CF92DF92EF92FF920F931F93CF93DF9337
:100DB000EC015B014A0169017801E881F981028453
:100DC000F385E02D0995C80CD91C86010150110945
:100DD000E881F9810488F589E02D9501A401B50128
:100DE000CE010995E881F9810688F789E02DCE01C9
:100DF000DF91CF911F910F91FF90EF90DF90CF90F7
:100E0000BF90AF909F908F900994EF92FF920F93B5
:100E10001F93DC01ED91FC9100A0F1A1E02D09955B
:100E20001F910F91FF90EF9008950F931F93DC0196
:100E3000ED91FC91068CF78DE02D09951F910F9196
:100E400008950F931F93DC01ED91FC91048CF58DB7
:100E5000E02D09951F910F910895DC01ED91FC9112
:100E60000084F185E02D09942F923F924F925F927A
:100E70006F927F928F929F92AF92BF92CF92DF92AA
:100E8000EF92FF920F931F93CF93DF9300D000D088
:100E900000D0CDB7DEB72C017E836D836A01590186
:100EA000C801FC82EB824801841A950A97FE03C0B0
:100EB00091948194910835012D813E81621A730AC3
:100EC00077FE03C0719461947108681479045CF42E
:100ED0003A2D2B2D5C01832F922F3D812E81DE82B6
:100EE000CD82C32ED22EAD81BE81AA16BB065CF484
:100EF0003C2D2D2D6C01832F922F3D812E81BE82A2
:100F0000AD82A32EB22E85012D813E81021B130BD3
:100F10001C012C183D0837FE03C031942194310880
:100F2000780117FF03C03FEFE31AF30AF594E79443
:100F3000C816D9062CF08FEF9FEF9A83898304C0DF
:100F4000A1E0B0E0BA83A9832D813E81A216B30649
:100F500024F1D201ED91FC910484F585E02D2B81E3
:100F60003C816814790424F44D815E81B60103C08C
:100F7000A6016D817E81C2010995E218F308F7FE92
:100F800006C029813A81C20ED31EE00EF11E8D816A
:100F90009E8101969E838D83D7CF26960FB6F894B7
:100FA000DEBF0FBECDBFDF91CF911F910F91FF909C
:100FB000EF90DF90CF90BF90AF909F908F907F90F9
:100FC0006F905F904F903F902F900895089580E02C
:100FD00090E008956115710579F0FB010190002002
:100FE000E9F73197AF01461B570BDC01ED91FC91FE
:100FF0000280F381E02D099480E090E008958F92C3
:101000009F92AF92CF92EF92FF920F931F93CF9345
:10101000DF93EC01262F898D9A8D009709F042C04D
:101020006A3059F41D861C862D898E859F8538E08F
:10103000239F800D911D112443C06D3009F4AAC077
:101040008F898823C9F03C898C859D8546E0349F33
:10105000800D911D1124488559854817590764F45E
:101060001D861C863D898E859F8548E0349F800DB6
:10107000911D11249F878E87EA88FB88088919892A
:101080004E855F856C857D85AD88CC88CE010E94BC
:10109000530F2C898C859D8536E0239F800D911DF3
:1010A00011243EC06A3079F41D861C862D89FC010E
:1010B0003896E4918E859F852E9F800D911D112479
:1010C0009F878E8767C06D3009F464C0FC01349639
:1010D0003491631708F45EC03296E491E61708F481
:1010E00059C0462F431B342FFC01329685909490B3
:1010F00047E0349F800C911C1124F4013296349106
:101100003196E491332311F0E1110DC0F4013496CE
:10111000E4912C898C859D85E29F800D911D112481
:101120009D878C8737C0F401359644915F8955239C
:1011300019F15C89E32FF0E0E40FF11D47FDFA950A
:101140005E9FB0015F9F700D11244C855D85460F39
:10115000571F688579856417750774F41D861C868A
:101160003D89FC013896E4918E859F853E9F800DD8
:10117000911D11249F878E87EA88FB880889198929
:101180004E855F856C857D85AD88CC88CE010E94BB
:10119000530FBCCF81E090E0DF91CF911F910F9171
:1011A000FF90EF90CF90AF909F908F9008952F92E7
:1011B0003F924F925F926F927F928F929F92AF92E7
:1011C000BF92CF92DF92EF92FF920F931F93CF9334
:1011D000DF93CDB7DEB7A2970FB6F894DEBF0FBE90
:1011E000CDBF7C014A015B01D22E9A01AB01C50142
:1011F000B4010E940319882319F06EE473E027C03C
:1012000024013501E89477F82FEF3FEF4FE75FE7D0
:10121000C301B2010E94031981110DC02FEF3FEFEE
:101220004FE75FE7C301B2010E94391718161CF49B
:1012300062E573E00CC02FEF3FEF4FE75FE4C501BD
:10124000B4010E94911818163CF466E573E0C701DA
:101250000E94EA078C01BBC02FEF3FEF4FE75FEC26
:10126000C501B4010E94391787FDEFCF20E030E0BF
:10127000A901C501B4010E94391787FF0FC0D7012A
:10128000ED91FC910190F081E02D6DE2C70109958F
:101290001C01B7FAB094B7F8B09402C0212C312CDD
:1012A00010E060E070E080E09FE31D1540F420E076
:1012B00030E040E251E40E943E171F5FF6CFA501E7
:1012C00094010E94CD164B015C010E94B017562E6E
:1012D000672E782EC92E19A2262F372F482F592F67
:1012E0008E010F5D1F4F0AA3412ECA01B9012AE0EA
:1012F00030E040E050E00E941C19605DF80162930C
:101300008F01211531054105510579F7BF01C7014D
:101310000E94EA078101080F191FDD2009F457C058
:10132000652D762D872D9C2D0E94DF179B01AC012A
:10133000C501B4010E94CC164B015C01D701ED91AF
:10134000FC910190F081E02D6EE2C7010995080F34
:10135000191F20E030E040E251E4C501B4010E94D1
:1013600096184B015C010E94B0179B0140E050E0D1
:1013700019A22AA0342C562E632E742EC52ECA0113
:10138000B9012AE030E040E050E00E941C19605DA5
:10139000F10162931F01211531054105510579F7CE
:1013A000BF01C7010E94EA07080F191F652D762D9E
:1013B000872D9C2D0E94DF179B01AC01C501B40154
:1013C0000E94CC164B015C01DA94D110C2CF6AE5C1
:1013D00073E0C7010E94EA07800F911FA2960FB623
:1013E000F894DEBF0FBECDBFDF91CF911F910F915B
:1013F000FF90EF90DF90CF90BF90AF909F908F9035
:101400007F906F905F904F903F902F9008950C9435
:10141000EA071F920F920FB60F9211242F933F935A
:101420004F935F936F937F938F939F93AF93BF93EC
:10143000EF93FF938CE094E00E947D03FF91EF9186
:10144000BF91AF919F918F917F916F915F914F91DC
:101450003F912F910F900FBE0F901F9018951F92E4
:101460000F920FB60F9211242F938F939F93EF93A8
:10147000FF93E0911C04F0911D048081E09122040F
:10148000F091230482FD12C09081809125048F5F2A
:101490008F7320912604821751F0E0912504F0E02B
:1014A000E45FFB4F958F8093250401C08081FF91FD
:1014B000EF919F918F912F910F900FBE0F901F90E2
:1014C0001895CF93DF93282F30E0F901E859FF4FAB
:1014D0008491F901EA57FA4FD491F901EC55FA4F8A
:1014E000C491CC2391F081110E941804EC2FF0E0FC
:1014F000EE0FFF1FE458FA4FA591B491EC91ED2344
:1015000081E090E021F480E002C080E090E0DF9193
:10151000CF9108951F93CF93DF93282F30E0F901E7
:10152000E859FF4F8491F901EA57FA4FD491F90134
:10153000EC55FA4FC491CC23C1F0162F81110E94B3
:101540001804EC2FF0E0EE0FFF1FE656FA4FA591BE
:10155000B4919FB7F894111104C08C91D095D82301
:1015600002C0EC91DE2BDC939FBFDF91CF911F91E6
:1015700008951F93CF93DF9385ED8093BC008091F6
:10158000950390919603A0919703B09198030796C5
:10159000A11DB11D23E0B695A795979587952A952E
:1015A000D1F72091BC0024FF53C040919503509186
:1015B00096036091970370919803452B462B472B18
:1015C00081F30097A105B10541F02AE22A95F1F7D0
:1015D00000C00197A109B109E4CF80919403C1E053
:1015E000C09393038823B1F1D091B8001091BA0051
:1015F0008091BC008A7B8093BC0060E082E10E9405
:101600008A0A60E083E10E948A0A1092DD03C09397
:10161000DF031092DE0361E082E10E948A0A61E04A
:1016200083E10E948A0A8091B9008E7F8093B9007D
:101630008091B9008D7F8093B90088E48093B800D1
:1016400085E48093BC001093BA00D093B80002C028
:101650001092DD03DF91CF911F910895CF93DF9317
:1016600090E0FC01EA57FA4F2491FC01EC55FA4F47
:101670008491882361F190E0880F991FFC01E85460
:10168000FA4FC591D491FC01E656FA4FA591B49159
:10169000611109C09FB7F8948881209582238883BF
:1016A000EC912E230BC0623061F49FB7F8948881CF
:1016B000322F309583238883EC912E2B2C939FBF60
:1016C00006C08FB7F894E8812E2B28838FBFDF9157
:1016D000CF9108958E3008F08E508770806480938B
:1016E0007C0080917A00806480937A0080917A00F7
:1016F00086FDFCCF8091780090917900089582302A
:10170000910538F0880F991F880F991F0597019749
:10171000F1F708958F929F92AF92BF92CF92DF928E
:10172000EF92FF926B017C010E9441044B015C012E
:10173000C114D104E104F104F1F00E944104DC0180
:10174000CB0188199909AA09BB09883E9340A105D4
:10175000B10570F321E0C21AD108E108F10888EE62
:10176000880E83E0981EA11CB11CC114D104E104B1
:10177000F10419F7DDCFFF90EF90DF90CF90BF908D
:10178000AF909F908F9008951F920F920FB60F9277
:1017900011242F933F938F939F93AF93BF93809187
:1017A000040490910504A0910604B09107043091BF
:1017B000030423E0230F2D3720F40196A11DB11D52
:1017C00005C026E8230F0296A11DB11D2093030436
:1017D0008093040490930504A0930604B093070437
:1017E0008091080490910904A0910A04B0910B041F
:1017F0000196A11DB11D8093080490930904A09344
:101800000A04B0930B04BF91AF919F918F913F91C8
:101810002F910F900FBE0F901F9018950F931F934D
:10182000CF93DF931F92CDB7DEB78C01698360E061
:10183000FC01868D0E948A0A41E050E0BE016F5F84
:101840007F4FF801838D948D0E94470E0F90DF919A
:10185000CF911F910F9108951F93CF93DF93EC01C8
:10186000162F60E20E940E0C111102C06CE001C044
:101870006DE0CE01DF91CF911F910C940E0C1F9261
:101880000F920FB60F9211242F933F934F935F93B4
:101890006F937F938F939F93AF93BF93EF93FF9338
:1018A0008091B900887F803609F49CC068F5883241
:1018B00009F45BC090F4803109F454C038F48823F3
:1018C00009F4F2C0883009F44DC0F2C0883109F43F
:1018D0004CC0803209F45DC0EBC0803409F468C0AC
:1018E00048F4803309F455C0883309F0E1C080938F
:1018F000DC03D4C0803509F44FC0883509F45DC0DD
:10190000883409F0D5C0D2C0883909F4C3C0A8F41E
:10191000883709F467C038F4883609F463C0803723
:1019200009F460C0C5C0883809F4B4C0803909F42E
:101930005FC0803809F0BCC05BC0803B09F484C044
:1019400038F4803A09F466C0883A09F47DC0B0C022
:10195000803C09F4A3C0883C09F4A0C0883B09F48A
:1019600086C0A6C08091020410C0909101048091AD
:101970000004981770F5E091010481E08E0F8093C8
:101980000104F0E0E052FC4F80818093BB0085ECC5
:1019900082C08093DC038AC0E091010481E08E0F55
:1019A000809301048091BB00F0E0E052FC4F808303
:1019B00090910104809100046AC0E091010481E0EB
:1019C0008E0F809301048091BB00F0E0E052FC4F49
:1019D00080838091DF03811169C081E08093DE0301
:1019E00084EA5DC083E08093DD031092DB03CFCFF8
:1019F0008091DB03803208F04DC0E091DB0381E091
:101A00008E0F8093DB038091BB00F0E0E554FC4F28
:101A10008083BDCF85EC8093BC001092DD03809164
:101A2000DB03803230F4E091DB03F0E0E554FC4F5F
:101A300010826091DB0370E08BEB93E0E0E0F0E07C
:101A400009951092DB0334C084E08093DD0310928B
:101A5000BA031092B903E0E0F0E009958091B90370
:101A6000811105C081E08093B90310929903E09140
:101A7000BA0381E08E0F8093BA03F0E0E756FC4F83
:101A800080818093BB009091BA038091B90398172D
:101A900008F47DCF85E88093BC000AC085EC809374
:101AA000BC001092DD0304C01092DC030E94B90A4E
:101AB000FF91EF91BF91AF919F918F917F916F9126
:101AC0005F914F913F912F910F900FBE0F901F90FC
:101AD0001895FC0120812EBD0DB407FEFDCF2EB55B
:101AE000FC01208308959F92AF92BF92CF92DF9224
:101AF000EF92FF920F931F93CF93DF93EC016B0153
:101B000088859985892B11F010E801C011E0F60154
:101B10009080892D8123AA24A3948111A12C2C814A
:101B20003D814E815F8160E271EA87E090E00E9432
:101B30001C19022FB12CE22EF12C002319F0C70141
:101B40000E947F0B8A85877FB9F58D858F3FB9F01D
:101B5000992D912381E009F480E08A1581F0EF85C9
:101B6000F8898F89992331F09081892B8083AA2469
:101B7000A39405C09081809589238083A12CE98955
:101B8000FA899081898D892B8083002319F0C70100
:101B90000E947F0B8E858F3F39F0EB89FC89908105
:101BA000888D892309F0B12AE989FA899081898D84
:101BB0008095892380832CC0E989FA899081898D59
:101BC000892B8083002319F0C7010E947F0B8D852C
:101BD0008F3F69F0EF85F8898F89992D912319F04E
:101BE0009081892B03C09081809589238083E98926
:101BF000FA899081898D8095892380838E858F3F96
:101C000039F0EB89FC899081888D892309F0B12A0C
:101C10008E858F3F11F0F601B08288859985892BDA
:101C200079F4110F111189CFDF91CF911F910F918D
:101C3000FF90EF90DF90CF90BF90AF909F9008956E
:101C40001695F0CF88EF91E0E0E0F1E0DF019C0134
:101C50001D9221503040E1F71092CC048091CD04C8
:101C6000833508F483E58093CD041092CE048091EF
:101C7000CF048F3208F48FE28093CF041092B60421
:101C80001092B5041092B8041092B7040895AF9260
:101C9000BF92CF92DF92EF92FF920F931F93CF9359
:101CA000DF931F92CDB7DEB78C015B016A01DC01C7
:101CB0008D919C911197892B41F01296ED91FC9199
:101CC0001397908181819CBD8DBDF80183858F3FE5
:101CD00019F060E00E948A0A7501CA0CDB1CEC1442
:101CE000FD04A9F0D7018D917D018983F8018081E0
:101CF0009181892B29F0CE0101960E94690DEFCFC9
:101D0000BE016F5F7F4FC8010E94730DE8CFD801FD
:101D10001B968C918F3F19F061E00E948A0A81E046
:101D20000F90DF91CF911F910F91FF90EF90DF9077
:101D3000CF90BF90AF900895CF93C82F87FDCFE786
:101D4000C093C80461E289EA94E00E940E0C6C2FF3
:101D5000606889EA94E00E940E0C60E289EA94E0EF
:101D6000CF910C940E0CCF938091C60487FD13C0C5
:101D700061E00E942E0B60E08091C6040E948A0AF6
:101D800061E070E080E090E00E948A0B61E0809169
:101D9000C6040E948A0AC091C904C83008F0C7E08E
:101DA000C093C90461E289EA94E00E940E0C6C2F92
:101DB000606189EA94E00E940E0C60E289EA94E096
:101DC0000E940E0C8091C8040E949C0E60E289EA79
:101DD00094E00E940E0C6CE089EA94E0CF910C94A0
:101DE0000E0C1F93CF93DF939091CA04992361F057
:101DF0008091CB048F5F891718F48093CB0404C0C3
:101E00001092CB040E94B30ED091CE04D695D695F5
:101E1000D6958091CF0486958695869590E02D2F56
:101E200030E08217930764F16D2F606489EA94E0D3
:101E30000E940E0CC091CC041091CD046C2F6068F0
:101E400089EA94E00E940E0C61E08091C7040E9430
:101E50008A0A412F50E06C2F70E0461B570B4F5FF2
:101E60005F4F84E5D89F600D711D112460507F4F36
:101E70008091C4049091C5040E94470EDF5FC9CFD2
:101E800060E489EA94E00E940E0C83E58093CC0420
:101E90001092CD048FE28093CE041092CF04DF9194
:101EA000CF911F9108952F923F924F925F926F9220
:101EB0007F928F929F92AF92BF92CF92DF92EF92DA
:101EC000FF920F931F93CF93DF93CDB7DEB76B973E
:101ED0000FB6F894DEBF0FBECDBF9B8F8A8F1B015C
:101EE0004A01D22E198708873701A982DC01599649
:101EF0002D913C915A972115310509F0FFC0189694
:101F00008D919C911997681779070CF0E7C11A9683
:101F10008D919C911B97481759070CF0DFC1EC2D50
:101F2000F0E0FB83EA839B0146E0C49E200D311D57
:101F300011243D872C87121613060CF0CFC16A2D91
:101F400070E07B876A8783E0660F771F8A95E1F7E9
:101F50007F876E87CB01880D991D181619060CF026
:101F6000BDC158968C91811104C08FEA8D1508F47B
:101F7000D394AA8DBB8DED91FC9111970284F385CA
:101F8000E02DCD010995B5E0DB9EC0011124EC2DBB
:101F9000F0E0F98BE88B91012B5F3F4F3B8B2A8B55
:101FA0003D822C822101AC01421953095D8B4C8B7F
:101FB0007981672F70E07F8B6E8BC4010896998FB3
:101FC000888FEC89FD89E40DF51DE458FF4FD4900E
:101FD00054019F828E82D0FE16C0AA8DBB8DED91DA
:101FE000FC91B1E0CB1209C02981213031F4048485
:101FF000F585E02D2885398519C00684F785E02D03
:10200000E884F9841DC0488559854615570519F19E
:10201000AA8DBB8DED91FC91B1E0CB120DC0298151
:10202000213051F40484F585E02D9301A501B2011E
:102030008A8D9B8D09950FC00684F785E02D73016D
:102040000A851B852A813B814E815F816C817D8160
:102050008A8D9B8D0995D6943FEFA31AB30A4E81C2
:102060005F816E897F89460F571F5F834E83888DFE
:10207000998DA816B90609F0AECF9FEF491A590AF3
:10208000AC81BD81E889F989AE0FBF1FBD83AC83E8
:102090002A893B894216530609F093CF4885598512
:1020A0004615570509F4F8C0AA8DBB8DED91FC913A
:1020B000B1E0CB1211C02981213071F4B1016B5F05
:1020C0007F4F0088F189E02D830128E030E0A401F2
:1020D0008A8D9B8D0995E0C06C857D854A815B81E9
:1020E000641B750B0684F785E02D73010E851F8533
:1020F0009A01A4018A8D9B8D0995CEC0F901349671
:10210000E491DE1AF901329685919491B7E0DB9E55
:10211000800D911D1124F901259134913B8B2A8B5F
:10212000FC01259134915901FC013296549031966D
:1021300034913C87329674903196149141E04C155D
:1021400018F05981523068F0672D072C000C770B7E
:102150007D836C83812F012E000C990B9B838A83D6
:1021600004C01B821A821D821C82AA8DBB8DED9138
:10217000FC9111970284F385E02DCD010995412C46
:10218000D12C612CF981EF2FF0E0FF83EE832C2D11
:1021900030E03B872A87A401410F511D17FD5A9556
:1021A0005F8B4E8BB101670D711D77FC7A95798F2E
:1021B000688F7C85671608F06FC0262D30E04A8155
:1021C0005B81420F531FAE81BF81A49FC001A59FB9
:1021D000900DB49F900D1124F401E80FF91FF98BB5
:1021E000E88B842D712C4E895F89420F531F5D8BC4
:1021F0004C8B751408F04DC051E0580F5E87877006
:1022000041F4C5010196EA89FB89EA0DFB1DD490D2
:102210005C01D7FE3AC061E0C61216C07981713008
:1022200099F4AA8DBB8DED91FC9111970484F585ED
:10223000E02D288539854C895D89688D798D670DFC
:10224000711DCD01099521C08C819D81870D911D46
:10225000EA85FB858E9FB0018F9F700D9E9F700D4C
:102260001124620D731DAA8DBB8DED91FC91119708
:102270000684F785E02DE884F9840E811F812A8584
:102280003B8548895989CD010995DD0C73948E856C
:10229000B0CF450C63948DCFAA8DBB8DED91FC9191
:1022A00011970688F789E02DCD016B960FB6F8944B
:1022B000DEBF0FBECDBFDF91CF911F910F91FF9079
:1022C000EF90DF90CF90BF90AF909F908F907F90D6
:1022D0006F905F904F903F902F9009946B960FB640
:1022E000F894DEBF0FBECDBFDF91CF911F910F914C
:1022F000FF90EF90DF90CF90BF90AF909F908F9026
:102300007F906F905F904F903F902F900895CF9364
:10231000DF93ECE0F4E01382128288EE93E0A0E019
:10232000B0E084839583A683B78322E033E03183D2
:10233000208325EC30E03587248724EC30E0378794
:10234000268720EC30E0318B208B21EC30E0338B82
:10235000228B22EC30E0358B248B26EC30E0378B5F
:10236000268B118E128E138E148EE0EDF4E0138204
:10237000128284839583A683B78384E193E091835B
:102380008083C9EAD4E01B821A8224E530E03D83D1
:102390002C8380E390E09F838E83398728879B87F7
:1023A0008A871E8A1D861C861F861E8681E08D8B6D
:1023B0008C8B2FEF3FEF3B8B2A8B398B288B8F8BAE
:1023C000188E1A8E198E86E293E0998388838CE1A9
:1023D00090E00E945819DC0111961C921E921396EF
:1023E0001C921E92129784E01B968C931B9787E099
:1023F0001C968C931C978FEF1E968C931E9786E0ED
:102400001D968C931D97E8EAF5E0E491F0E0EE0F5D
:10241000FF1FE656FA4F8591949156969C938E93A2
:102420005597EAE8F5E0E4915A96EC935A97EAEA70
:10243000F5E0E491F0E0EE0FFF1FE656FA4F8591CC
:10244000949150969C938E931F97ECE8F5E0E4915D
:102450005796EC935797EBEAF5E0E491F0E0EE0F36
:10246000FF1FE656FA4F8591949152969C938E9356
:102470005197EDE8F5E0E4915996EC93599740E0D7
:1024800059E06DE370E014964D935D936D937C93EA
:10249000179781E090E019969C938E9318971A965F
:1024A0001C921A975B961C925B97BC8FAB8F85E052
:1024B0008E8F83E08D8FDF91CF910895CF93DF933F
:1024C00000D000D000D0CDB7DEB7789484B582605C
:1024D00084BD84B5816084BD85B5826085BD85B5C8
:1024E000816085BD80916E00816080936E00109246
:1024F00081008091810082608093810080918100C1
:102500008160809381008091800081608093800051
:102510008091B10084608093B1008091B0008160AF
:102520008093B00080917A00846080937A008091DB
:102530007A00826080937A0080917A008160809333
:102540007A0080917A00806880937A001092C100AE
:10255000E0911C04F0911D0482E08083E091180456
:10256000F09119041082E0911A04F0911B0480E1AB
:10257000808310922404E0912004F091210486E0ED
:102580008083E0911E04F0911F048081806180832C
:10259000E0911E04F0911F04808188608083E091A7
:1025A0001E04F0911F04808180688083E0911E04E6
:1025B000F0911F0480818F7D80832091C40430912D
:1025C000C5043A832983D9011B968C918F3F49F02A
:1025D00061E00E942E0B61E0E981FA8183850E940F
:1025E0008A0AA981BA818D919C91892B09F434C002
:1025F0001FB7F8948091DC04811127C0EEEAF5E062
:102600008491E0E9F5E09491E82FF0E0EE0FFF1FF0
:10261000E854FA4FA591B491EC91E92321F461E0DB
:102620008AE00E948A0A61E08AE00E942E0B8CB543
:1026300080618CBD8CB580648CBD61E08DE00E94B2
:102640002E0B61E08BE00E942E0B8091DC048F5FEB
:102650008093DC041FBF2FC061E0E981FA8184858B
:102660000E942E0BA981BA811A968C911A978B7FA2
:1026700021F460E01C968C9104C061E0E981FA814C
:1026800084850E948A0AA981BA811D968C918F3F08
:1026900049F061E00E942E0B61E0E981FA818585B5
:1026A0000E948A0AA981BA811E968C918F3F19F0E7
:1026B00060E00E942E0B81E0E981FA81838F61E066
:1026C0008091C7040E942E0B8091C60487FD03C031
:1026D00061E00E942E0B84E08093C90488E280931D
:1026E000C8041092CA041092CB040E94B30E109238
:1026F000CC048091CD04833508F483E58093CD0428
:102700001092CE048091CF048F3208F48FE2809330
:10271000CF040E94F10E61E088E00E942E0B61E080
:1027200089E00E942E0B61E08AE00E942E0B61E09E
:102730008BE00E942E0B82E30E949C0E64E670E008
:1027400080E090E00E948A0B0E94220E11E08EE150
:10275000282E312C83E10E94610ABC01990F880B5D
:10276000990B0E94E11769837A838B839C83609322
:10277000050570930605809307059093080582E18F
:102780000E94610ABC01990F880B990B0E94E11706
:1027900060930105709302058093030590930405EF
:1027A0008CE00E94610ABC01990F880B990B0E9472
:1027B000E1176093FD047093FE048093FF049093EF
:1027C00000058DE00E94610ABC01990F880B990BEE
:1027D0000E94E1176093F9047093FA048093FB045C
:1027E0009093FC048EE00E946A0BBC01990F880B49
:1027F000990B0E94E1172B013C016093F504709343
:10280000F6048093F7049093F8048FE00E946A0B1B
:10281000BC01990F880B990B0E94E1174B015C01D9
:102820006093F1047093F2048093F3049093F404A2
:1028300080E10E946A0BBC01990F880B990B0E94E2
:10284000E1176B017C016093ED047093EE048093BB
:10285000EF049093F00481E10E946A0B9E838D83C4
:1028600020E030E040EA50E4C301B2010E94961833
:1028700020E030EC4FE754E40E943E1720E030E0C7
:1028800040EA50E40E9496186093E9047093EA04C9
:102890008093EB049093EC0420E030E040EF50E4B0
:1028A000C501B4010E94961820E030EC4FE754E4D3
:1028B0000E943E1720E030E040EF50E40E9496185E
:1028C0006093E5047093E6048093E7049093E80432
:1028D00020E030E040E351E4C701B6010E949618C1
:1028E00020E030EC4FE754E40E943E1720E030E057
:1028F00040E351E40E9496186093E1047093E2046F
:102900008093E3049093E4042D813E81B901330F59
:10291000880B990B0E94E11720E030E040E351E47E
:102920000E94961820E030EC4FE754E40E943E17D6
:1029300020E030E040E351E40E9496186B017C01F6
:102940006093DD047093DE048093DF049093E004D1
:1029500020E030E0A90169817A818B819C810E940D
:102960003917882379F0F7FAF094F7F8F094C092C9
:10297000DD04D092DE04E092DF04F092E0046DE525
:1029800073E002C062E673E08CE094E00E94070A04
:102990004091DD045091DE046091DF047091E00409
:1029A00022E030E08CE094E00E94D70820E030E0A4
:1029B000A901609101057091020580910305909134
:1029C00004050E9439178823A1F08091E1049091B9
:1029D000E204A091E304B091E404B0588093E104D0
:1029E0009093E204A093E304B093E40466E673E0FA
:1029F00002C06BE673E08CE094E00E94070A40910D
:102A0000E1045091E2046091E3047091E40422E057
:102A100030E08CE094E00E94D70820E030E0A9018B
:102A20006091FD047091FE048091FF049091000577
:102A30000E9439178823A1F08091E5049091E60463
:102A4000A091E704B091E804B0588093E504909316
:102A5000E604A093E704B093E8046FE673E002C0D5
:102A600064E773E08CE094E00E94070A4091E5047B
:102A70005091E6046091E7047091E80422E030E0B0
:102A80008CE094E00E94D70820E030E0A90160913A
:102A9000F9047091FA048091FB049091FC040E9467
:102AA00039178823A1F08091E9049091EA04A0915C
:102AB000EB04B091EC04B0588093E9049093EA04DD
:102AC000A093EB04B093EC0468E773E002C06DE7F9
:102AD00073E08CE094E00E94070A4091E904509171
:102AE000EA046091EB047091EC0422E030E08CE0A9
:102AF00094E00E94D7080E94220E1093BD04109308
:102B0000BE041092B6041092B5041092B80410924C
:102B1000B70461E873E089EA94E00E94070A4091F3
:102B2000E9045091EA046091EB047091EC0421E017
:102B300030E089EA94E00E94D708C090E904D09080
:102B4000EA04E090EB04F090EC0420E030E040EA8E
:102B500051E4C701B6010E949118181654F020E004
:102B600030E040EA51ECC701B6010E94391787FFF7
:102B700014C061E088E00E948A0A62E370E080E0AD
:102B800090E00E948A0B60E088E00E948A0A62E37B
:102B900070E080E090E00E948A0B1093BD041093D7
:102BA000BE041092B6041092B5048AE090E09093AF
:102BB000B8048093B70465E873E089EA94E00E9462
:102BC000070A4091E5045091E6046091E704709192
:102BD000E80421E030E089EA94E00E94D708C09040
:102BE000E504D090E604E090E704F090E80420E0EB
:102BF00030E040EA51E4C701B6010E94911818166E
:102C000054F020E030E040EA51ECC701B6010E94E8
:102C1000391787FF14C061E089E00E948A0A62E3E5
:102C200070E080E090E00E948A0B60E089E00E9402
:102C30008A0A62E370E080E090E00E948A0B1093C1
:102C4000BD041093BE041092B6041092B504A4E122
:102C5000B0E0B093B804A093B70469E873E089EAE0
:102C600094E00E94070A4091E1045091E2046091CF
:102C7000E3047091E40421E030E089EA94E00E94EA
:102C8000D708C090E104D090E204E090E304F09013
:102C9000E40420E030E040EA51E4C701B6010E94BC
:102CA0009118181654F020E030E040EA51ECC701CA
:102CB000B6010E94391787FF14C061E08AE00E94C4
:102CC0008A0A62E370E080E090E00E948A0B60E094
:102CD0008AE00E948A0A62E370E080E090E00E944D
:102CE0008A0B1093BD041093BE041092B604109288
:102CF000B5043092B8042092B7046DE873E089EA15
:102D000094E00E94070A4091DD045091DE04609136
:102D1000DF047091E00421E030E089EA94E00E9451
:102D2000D708C090DD04D090DE04E090DF04F0907E
:102D3000E00420E030E040EA51E4C701B6010E941F
:102D40009118181654F020E030E040EA51ECC70129
:102D5000B6010E94391787FF14C061E08BE00E9422
:102D60008A0A62E370E080E090E00E948A0B60E0F3
:102D70008BE00E948A0A62E370E080E090E00E94AB
:102D80008A0B0E94F10E61E070E080E090E00E940A
:102D90008A0B0E940E04DECC5058BB27AA270E9443
:102DA000E4160C9457180E94491838F00E945018E5
:102DB00020F039F49F3F19F426F40C9446180EF4D1
:102DC000E095E7FB0C944018E92F0E94681858F32F
:102DD000BA17620773078407950720F079F4A6F500
:102DE0000C948A180EF4E0950B2EBA2FA02D0B012F
:102DF000B90190010C01CA01A0011124FF27591B40
:102E000099F0593F50F4503E68F11A16F040A22F45
:102E1000232F342F4427585FF3CF469537952795B6
:102E2000A795F0405395C9F77EF41F16BA0B620BB5
:102E3000730B840BBAF09150A1F0FF0FBB1F661FFC
:102E4000771F881FC2F70EC0BA0F621F731F841F3F
:102E500048F4879577956795B795F7959E3F08F065
:102E6000B0CF9395880F08F09927EE0F9795879527
:102E700008950E941C1808F481E008950E945217DA
:102E80000C9457180E94501858F00E94491840F0AE
:102E900029F45F3F29F00C94401851110C948B18C1
:102EA0000C9446180E94681868F39923B1F35523CF
:102EB00091F3951B550BBB27AA276217730784074D
:102EC00038F09F5F5F4F220F331F441FAA1FA9F3E3
:102ED00035D00E2E3AF0E0E832D091505040E695D1
:102EE000001CCAF72BD0FE2F29D0660F771F881F32
:102EF000BB1F261737074807AB07B0E809F0BB0B25
:102F0000802DBF01FF2793585F4F3AF09E3F510538
:102F100078F00C9440180C948B185F3FE4F3983EC3
:102F2000D4F3869577956795B795F7959F5FC9F721
:102F3000880F911D9695879597F90895E1E0660FA2
:102F4000771F881FBB1F621773078407BA0720F01B
:102F5000621B730B840BBA0BEE1F88F7E095089584
:102F60000E94701888F09F5798F0B92F9927B75191
:102F7000B0F0E1F0660F771F881F991F1AF0BA951D
:102F8000C9F714C0B13091F00E948A18B1E00895D9
:102F90000C948A18672F782F8827B85F39F0B93FCB
:102FA000CCF3869577956795B395D9F73EF49095D0
:102FB0008095709561957F4F8F4F9F4F0895E8944E
:102FC00009C097FB3EF490958095709561957F4F71
:102FD0008F4F9F4F9923A9F0F92F96E9BB2793951F
:102FE000F695879577956795B795F111F8CFFAF42F
:102FF000BB0F11F460FF1BC06F5F7F4F8F4F9F4F60
:1030000016C0882311F096E911C0772321F09EE8BD
:10301000872F762F05C0662371F096E8862F70E023
:1030200060E02AF09A95660F771F881FDAF7880FFD
:103030009695879597F90895990F0008550FAA0B53
:10304000E0E8FEEF16161706E807F907C0F01216BB
:103050001306E407F50798F0621B730B840B950BBE
:1030600039F40A2661F0232B242B252B21F4089513
:103070000A2609F4A140A6958FEF811D811D0895B0
:1030800097F99F6780E870E060E008959FEF80EC1B
:10309000089500240A9416161706180609060895BE
:1030A00000240A9412161306140605060895092E24
:1030B0000394000C11F4882352F0BB0F40F4BF2B93
:1030C00011F460FF04C06F5F7F4F8F4F9F4F0895D3
:1030D00057FD9058440F551F59F05F3F71F04795C9
:1030E000880F97FB991F61F09F3F79F087950895AE
:1030F000121613061406551FF2CF4695F1DF08C0CD
:10310000161617061806991FF1CF869571056105E9
:1031100008940895E894BB2766277727CB0197F991
:1031200008950E941C1808F48FEF08950E94A918B2
:103130000C9457180E94491838F00E94501820F03B
:10314000952311F00C9440180C94461811240C94FB
:103150008B180E94681870F3959FC1F3950F50E08B
:10316000551F629FF001729FBB27F00DB11D639F39
:10317000AA27F00DB11DAA1F649F6627B00DA11DDF
:10318000661F829F2227B00DA11D621F739FB00D85
:10319000A11D621F839FA00D611D221F749F3327F5
:1031A000A00D611D231F849F600D211D822F762F8E
:1031B0006A2F11249F5750409AF0F1F088234AF06B
:1031C000EE0FFF1FBB1F661F771F881F91505040D7
:1031D000A9F79E3F510580F00C9440180C948B1871
:1031E0005F3FE4F3983ED4F3869577956795B7955E
:1031F000F795E7959F5FC1F7FE2B880F911D969578
:10320000879597F908950E941C18880B990B0895CB
:1032100097FB072E16F4009407D077FD09D00E9483
:103220003E1907FC05D03EF4909581959F4F089577
:10323000709561957F4F0895A1E21A2EAA1BBB1BC2
:10324000FD010DC0AA1FBB1FEE1FFF1FA217B30772
:10325000E407F50720F0A21BB30BE40BF50B661F88
:10326000771F881F991F1A9469F76095709580954C
:1032700090959B01AC01BD01CF010895AA1BBB1B1A
:1032800051E107C0AA1FBB1FA617B70710F0A61B66
:10329000B70B881F991F5A95A9F780959095BC0187
:1032A000CD010895EE0FFF1F0590F491E02D0994D4
:1032B0000F931F93CF93DF938230910510F482E038
:1032C00090E0E0910B05F0910C0520E030E0A0E0EB
:1032D000B0E0309719F14081518102811381481784
:1032E0005907C8F08417950769F4109731F01296C2
:1032F0000C93129713961C9327C000930B05109301
:103300000C0522C02115310519F04217530718F496
:103310009A01BD01EF01DF01F801DBCF2115310575
:10332000F9F0281B390B2430310580F48A819B8108
:103330006115710521F0FB019383828304C0909392
:103340000C0580930B05FE01329644C0FE01E20F8E
:10335000F31F8193919322503109398328833AC016
:103360002091090530910A05232B41F42091FA029E
:103370003091FB0230930A05209309052091F80251
:103380003091F9022115310541F42DB73EB7409136
:10339000FC025091FD02241B350BE0910905F091D0
:1033A0000A05E217F307A0F42E1B3F0B2817390775
:1033B00078F0AC014E5F5F4F2417350748F04E0F91
:1033C0005F1F50930A05409309058193919302C0B2
:1033D000E0E0F0E0CF01DF91CF911F910F910895D0
:1033E000CF93DF93009709F481C0FC0132971382D9
:1033F0001282A0910B05B0910C05109781F42081E9
:103400003181820F931F2091090530910A052817F9
:10341000390751F5F0930A05E093090567C0ED01FE
:1034200020E030E0CE17DF0740F44A815B819E0147
:1034300041155105F1F0EA01F5CFD383C2834081F4
:103440005181840F951FC817D90759F48881998134
:10345000840F951F0296918380838A819B81938339
:1034600082832115310529F4F0930C05E0930B05B7
:103470003DC0E901FB83EA8349915991C40FD51FEF
:10348000EC17FD0761F480819181840F951F0296EE
:10349000E90199838883828193819B838A83E0E019
:1034A000F0E012968D919C911397009719F0FD0111
:1034B000DC01F7CF8D919C9111979D012E5F3F4FBD
:1034C000820F931F2091090530910A0528173907AB
:1034D00069F4309729F410920C0510920B0502C084
:1034E00013821282B0930A05A0930905DF91CF9150
:0634F0000895F894FFCFDF
:1034F60000000000000000000000000000000000C6
:1035060000000000000000000000000000000000B5
:10351600000000000000C0E0F0F8FCFCFEFFFCE04C
:103526000000000000000000000000000000000095
:103536000000000000000000000000000000000085
:103546000000000000000000000000000000000075
:103556000000000000F8F8F8F8F8F8F8F8F8F8F8BD
:10356600F8F0F0E0E0C080C0FCFFFFFFFF7F3F7F88
:10357600FFFFFFFFFF00000000000000000000004A
:103586000000000000000000000000000000000035
:103596000000000000000000000000000000000025
:1035A600000000000000000000000F1F3F7FFFFF2B
:1035B600FFFFFFFFFFFFE7C7C7878F9F9FFFFFFF45
:1035C600C1C0E0FCFFFFFFFFFFFCFCFCFCFEFEFEB3
:1035D600FCFCF8F8F0E0C0C00000000000000000AD
:1035E60000000000000000000000000000000000D5
:1035F60000000000000000000000000000000000C5
:103606000080C0E0F1FBFFFFFFFFFF7F1F0F0F876A
:10361600E7FFFFFF1F1F3FF9F8F8F8F8F8F8FDFF7E
:10362600FFFFFFFFFFFFFFFF7F3F0F0701000000C7
:103636000000000000000000000000000000000084
:103646000000000000000000000000000000000074
:10365600000000F0FEFFFFFFFFFFFFFFFFFFFFFE82
:103666007E3F3F0F1FFFFFFFFCF0E0F1FFFFFFFF74
:10367600FFFCF00101010101010101000000000051
:103686000000000000000000000000000000000034
:103696000000000000000000000000000000000024
:1036A60000000000000000030303030303030301FB
:1036B60001010100000000000000030F1F3F7F7F93
:1036C600FFFFFFFF7F7F1F030000000000000000D8
:1036D60000000000000000000000000000000000E4
:1036E600000000000000000000000D0520000000A2
:1036F60000009F030C033603EC03670345035903DD
:10370600000000003E053305E70725052C052905C1
:10371600260500000000FF070C03E707E60766041E
:1037260025052D070507210715073407250550052B
:103736002C0CCC0693064E063106C40565056E6153
:103746006E00696E66006F7666000D0A0056343AA2
:103756002D0056343A0056333A2D0056333A005669
:10376600323A2D0056323A0056313A2D0056313A49
:103776000056313D0056323D0056333D0056343D2D
:02378600000041
:00000001FF
